{
  "_format": "hh-sol-artifact-1",
  "contractName": "ERC721ACollection",
  "sourceName": "contracts/ERC721A.sol",
  "abi": [
    {
      "inputs": [
        {
          "internalType": "string",
          "name": "_name",
          "type": "string"
        },
        {
          "internalType": "string",
          "name": "_symbol",
          "type": "string"
        },
        {
          "internalType": "string",
          "name": "_baseURI",
          "type": "string"
        },
        {
          "internalType": "uint256",
          "name": "_maxSupply",
          "type": "uint256"
        },
        {
          "internalType": "uint256",
          "name": "_pricePerToken",
          "type": "uint256"
        },
        {
          "internalType": "bytes32",
          "name": "_accessCodeHash",
          "type": "bytes32"
        },
        {
          "internalType": "address",
          "name": "_owner",
          "type": "address"
        }
      ],
      "stateMutability": "nonpayable",
      "type": "constructor"
    },
    {
      "inputs": [],
      "name": "ApprovalCallerNotOwnerNorApproved",
      "type": "error"
    },
    {
      "inputs": [],
      "name": "ApprovalQueryForNonexistentToken",
      "type": "error"
    },
    {
      "inputs": [],
      "name": "BalanceQueryForZeroAddress",
      "type": "error"
    },
    {
      "inputs": [],
      "name": "MintERC2309QuantityExceedsLimit",
      "type": "error"
    },
    {
      "inputs": [],
      "name": "MintToZeroAddress",
      "type": "error"
    },
    {
      "inputs": [],
      "name": "MintZeroQuantity",
      "type": "error"
    },
    {
      "inputs": [],
      "name": "NotCompatibleWithSpotMints",
      "type": "error"
    },
    {
      "inputs": [],
      "name": "OwnerQueryForNonexistentToken",
      "type": "error"
    },
    {
      "inputs": [],
      "name": "OwnershipNotInitializedForExtraData",
      "type": "error"
    },
    {
      "inputs": [],
      "name": "SequentialMintExceedsLimit",
      "type": "error"
    },
    {
      "inputs": [],
      "name": "SequentialUpToTooSmall",
      "type": "error"
    },
    {
      "inputs": [],
      "name": "SpotMintTokenIdTooSmall",
      "type": "error"
    },
    {
      "inputs": [],
      "name": "TokenAlreadyExists",
      "type": "error"
    },
    {
      "inputs": [],
      "name": "TransferCallerNotOwnerNorApproved",
      "type": "error"
    },
    {
      "inputs": [],
      "name": "TransferFromIncorrectOwner",
      "type": "error"
    },
    {
      "inputs": [],
      "name": "TransferToNonERC721ReceiverImplementer",
      "type": "error"
    },
    {
      "inputs": [],
      "name": "TransferToZeroAddress",
      "type": "error"
    },
    {
      "inputs": [],
      "name": "URIQueryForNonexistentToken",
      "type": "error"
    },
    {
      "anonymous": false,
      "inputs": [
        {
          "indexed": true,
          "internalType": "address",
          "name": "owner",
          "type": "address"
        },
        {
          "indexed": true,
          "internalType": "address",
          "name": "approved",
          "type": "address"
        },
        {
          "indexed": true,
          "internalType": "uint256",
          "name": "tokenId",
          "type": "uint256"
        }
      ],
      "name": "Approval",
      "type": "event"
    },
    {
      "anonymous": false,
      "inputs": [
        {
          "indexed": true,
          "internalType": "address",
          "name": "owner",
          "type": "address"
        },
        {
          "indexed": true,
          "internalType": "address",
          "name": "operator",
          "type": "address"
        },
        {
          "indexed": false,
          "internalType": "bool",
          "name": "approved",
          "type": "bool"
        }
      ],
      "name": "ApprovalForAll",
      "type": "event"
    },
    {
      "anonymous": false,
      "inputs": [
        {
          "indexed": true,
          "internalType": "uint256",
          "name": "fromTokenId",
          "type": "uint256"
        },
        {
          "indexed": false,
          "internalType": "uint256",
          "name": "toTokenId",
          "type": "uint256"
        },
        {
          "indexed": true,
          "internalType": "address",
          "name": "from",
          "type": "address"
        },
        {
          "indexed": true,
          "internalType": "address",
          "name": "to",
          "type": "address"
        }
      ],
      "name": "ConsecutiveTransfer",
      "type": "event"
    },
    {
      "anonymous": false,
      "inputs": [
        {
          "indexed": true,
          "internalType": "address",
          "name": "previousOwner",
          "type": "address"
        },
        {
          "indexed": true,
          "internalType": "address",
          "name": "newOwner",
          "type": "address"
        }
      ],
      "name": "OwnershipTransferred",
      "type": "event"
    },
    {
      "anonymous": false,
      "inputs": [
        {
          "indexed": true,
          "internalType": "address",
          "name": "from",
          "type": "address"
        },
        {
          "indexed": true,
          "internalType": "address",
          "name": "to",
          "type": "address"
        },
        {
          "indexed": true,
          "internalType": "uint256",
          "name": "tokenId",
          "type": "uint256"
        }
      ],
      "name": "Transfer",
      "type": "event"
    },
    {
      "inputs": [],
      "name": "accessCodeHash",
      "outputs": [
        {
          "internalType": "bytes32",
          "name": "",
          "type": "bytes32"
        }
      ],
      "stateMutability": "view",
      "type": "function"
    },
    {
      "inputs": [
        {
          "internalType": "address",
          "name": "to",
          "type": "address"
        },
        {
          "internalType": "uint256",
          "name": "tokenId",
          "type": "uint256"
        }
      ],
      "name": "approve",
      "outputs": [],
      "stateMutability": "payable",
      "type": "function"
    },
    {
      "inputs": [
        {
          "internalType": "address",
          "name": "owner",
          "type": "address"
        }
      ],
      "name": "balanceOf",
      "outputs": [
        {
          "internalType": "uint256",
          "name": "",
          "type": "uint256"
        }
      ],
      "stateMutability": "view",
      "type": "function"
    },
    {
      "inputs": [],
      "name": "baseURI",
      "outputs": [
        {
          "internalType": "string",
          "name": "",
          "type": "string"
        }
      ],
      "stateMutability": "view",
      "type": "function"
    },
    {
      "inputs": [
        {
          "internalType": "uint256",
          "name": "tokenId",
          "type": "uint256"
        }
      ],
      "name": "getApproved",
      "outputs": [
        {
          "internalType": "address",
          "name": "",
          "type": "address"
        }
      ],
      "stateMutability": "view",
      "type": "function"
    },
    {
      "inputs": [
        {
          "internalType": "address",
          "name": "owner",
          "type": "address"
        },
        {
          "internalType": "address",
          "name": "operator",
          "type": "address"
        }
      ],
      "name": "isApprovedForAll",
      "outputs": [
        {
          "internalType": "bool",
          "name": "",
          "type": "bool"
        }
      ],
      "stateMutability": "view",
      "type": "function"
    },
    {
      "inputs": [],
      "name": "maxSupply",
      "outputs": [
        {
          "internalType": "uint256",
          "name": "",
          "type": "uint256"
        }
      ],
      "stateMutability": "view",
      "type": "function"
    },
    {
      "inputs": [],
      "name": "name",
      "outputs": [
        {
          "internalType": "string",
          "name": "",
          "type": "string"
        }
      ],
      "stateMutability": "view",
      "type": "function"
    },
    {
      "inputs": [],
      "name": "owner",
      "outputs": [
        {
          "internalType": "address",
          "name": "",
          "type": "address"
        }
      ],
      "stateMutability": "view",
      "type": "function"
    },
    {
      "inputs": [
        {
          "internalType": "address",
          "name": "to",
          "type": "address"
        },
        {
          "internalType": "uint256",
          "name": "quantity",
          "type": "uint256"
        },
        {
          "internalType": "string[]",
          "name": "uris",
          "type": "string[]"
        }
      ],
      "name": "ownerMint",
      "outputs": [],
      "stateMutability": "nonpayable",
      "type": "function"
    },
    {
      "inputs": [
        {
          "internalType": "uint256",
          "name": "tokenId",
          "type": "uint256"
        }
      ],
      "name": "ownerOf",
      "outputs": [
        {
          "internalType": "address",
          "name": "",
          "type": "address"
        }
      ],
      "stateMutability": "view",
      "type": "function"
    },
    {
      "inputs": [],
      "name": "pricePerToken",
      "outputs": [
        {
          "internalType": "uint256",
          "name": "",
          "type": "uint256"
        }
      ],
      "stateMutability": "view",
      "type": "function"
    },
    {
      "inputs": [
        {
          "internalType": "uint256",
          "name": "quantity",
          "type": "uint256"
        },
        {
          "internalType": "string",
          "name": "code",
          "type": "string"
        }
      ],
      "name": "publicMint",
      "outputs": [],
      "stateMutability": "payable",
      "type": "function"
    },
    {
      "inputs": [],
      "name": "renounceOwnership",
      "outputs": [],
      "stateMutability": "nonpayable",
      "type": "function"
    },
    {
      "inputs": [
        {
          "internalType": "address",
          "name": "from",
          "type": "address"
        },
        {
          "internalType": "address",
          "name": "to",
          "type": "address"
        },
        {
          "internalType": "uint256",
          "name": "tokenId",
          "type": "uint256"
        }
      ],
      "name": "safeTransferFrom",
      "outputs": [],
      "stateMutability": "payable",
      "type": "function"
    },
    {
      "inputs": [
        {
          "internalType": "address",
          "name": "from",
          "type": "address"
        },
        {
          "internalType": "address",
          "name": "to",
          "type": "address"
        },
        {
          "internalType": "uint256",
          "name": "tokenId",
          "type": "uint256"
        },
        {
          "internalType": "bytes",
          "name": "_data",
          "type": "bytes"
        }
      ],
      "name": "safeTransferFrom",
      "outputs": [],
      "stateMutability": "payable",
      "type": "function"
    },
    {
      "inputs": [
        {
          "internalType": "string",
          "name": "code",
          "type": "string"
        }
      ],
      "name": "setAccessCode",
      "outputs": [],
      "stateMutability": "nonpayable",
      "type": "function"
    },
    {
      "inputs": [
        {
          "internalType": "address",
          "name": "operator",
          "type": "address"
        },
        {
          "internalType": "bool",
          "name": "approved",
          "type": "bool"
        }
      ],
      "name": "setApprovalForAll",
      "outputs": [],
      "stateMutability": "nonpayable",
      "type": "function"
    },
    {
      "inputs": [
        {
          "internalType": "string",
          "name": "newBaseURI",
          "type": "string"
        }
      ],
      "name": "setBaseURI",
      "outputs": [],
      "stateMutability": "nonpayable",
      "type": "function"
    },
    {
      "inputs": [
        {
          "internalType": "uint256",
          "name": "newMaxSupply",
          "type": "uint256"
        }
      ],
      "name": "setMaxSupply",
      "outputs": [],
      "stateMutability": "nonpayable",
      "type": "function"
    },
    {
      "inputs": [
        {
          "internalType": "uint256",
          "name": "newPrice",
          "type": "uint256"
        }
      ],
      "name": "setPrice",
      "outputs": [],
      "stateMutability": "nonpayable",
      "type": "function"
    },
    {
      "inputs": [
        {
          "internalType": "bytes4",
          "name": "interfaceId",
          "type": "bytes4"
        }
      ],
      "name": "supportsInterface",
      "outputs": [
        {
          "internalType": "bool",
          "name": "",
          "type": "bool"
        }
      ],
      "stateMutability": "view",
      "type": "function"
    },
    {
      "inputs": [],
      "name": "symbol",
      "outputs": [
        {
          "internalType": "string",
          "name": "",
          "type": "string"
        }
      ],
      "stateMutability": "view",
      "type": "function"
    },
    {
      "inputs": [
        {
          "internalType": "uint256",
          "name": "tokenId",
          "type": "uint256"
        }
      ],
      "name": "tokenURI",
      "outputs": [
        {
          "internalType": "string",
          "name": "",
          "type": "string"
        }
      ],
      "stateMutability": "view",
      "type": "function"
    },
    {
      "inputs": [],
      "name": "totalSupply",
      "outputs": [
        {
          "internalType": "uint256",
          "name": "result",
          "type": "uint256"
        }
      ],
      "stateMutability": "view",
      "type": "function"
    },
    {
      "inputs": [
        {
          "internalType": "address",
          "name": "from",
          "type": "address"
        },
        {
          "internalType": "address",
          "name": "to",
          "type": "address"
        },
        {
          "internalType": "uint256",
          "name": "tokenId",
          "type": "uint256"
        }
      ],
      "name": "transferFrom",
      "outputs": [],
      "stateMutability": "payable",
      "type": "function"
    },
    {
      "inputs": [
        {
          "internalType": "address",
          "name": "newOwner",
          "type": "address"
        }
      ],
      "name": "transferOwnership",
      "outputs": [],
      "stateMutability": "nonpayable",
      "type": "function"
    },
    {
      "inputs": [
        {
          "internalType": "address payable",
          "name": "recipient",
          "type": "address"
        }
      ],
      "name": "withdraw",
      "outputs": [],
      "stateMutability": "nonpayable",
      "type": "function"
    }
  ],
  "bytecode": "0x608060405234801561001057600080fd5b50604051611dd4380380611dd483398101604081905261002f9161019b565b8686600261003d83826102ee565b50600361004a82826102ee565b5050600080555061005a3361008b565b600c61006686826102ee565b50600a849055600b839055600d82905561007f8161008b565b505050505050506103ad565b600980546001600160a01b038381166001600160a01b0319831681179093556040519116919082907f8be0079c531659141344cd1fd0a4f28419497f9722a3daafe3b4186f6b6457e090600090a35050565b634e487b7160e01b600052604160045260246000fd5b600082601f83011261010457600080fd5b81516001600160401b038082111561011e5761011e6100dd565b604051601f8301601f19908116603f01168101908282118183101715610146576101466100dd565b816040528381526020925086602085880101111561016357600080fd5b600091505b838210156101855785820183015181830184015290820190610168565b6000602085830101528094505050505092915050565b600080600080600080600060e0888a0312156101b657600080fd5b87516001600160401b03808211156101cd57600080fd5b6101d98b838c016100f3565b985060208a01519150808211156101ef57600080fd5b6101fb8b838c016100f3565b975060408a015191508082111561021157600080fd5b5061021e8a828b016100f3565b60608a015160808b015160a08c015160c08d01519399509197509550935090506001600160a01b038116811461025357600080fd5b8091505092959891949750929550565b600181811c9082168061027757607f821691505b60208210810361029757634e487b7160e01b600052602260045260246000fd5b50919050565b601f8211156102e9576000816000526020600020601f850160051c810160208610156102c65750805b601f850160051c820191505b818110156102e5578281556001016102d2565b5050505b505050565b81516001600160401b03811115610307576103076100dd565b61031b816103158454610263565b8461029d565b602080601f83116001811461035057600084156103385750858301515b600019600386901b1c1916600185901b1785556102e5565b600085815260208120601f198616915b8281101561037f57888601518255948401946001909101908401610360565b508582101561039d5787850151600019600388901b60f8161c191681555b5050505050600190811b01905550565b611a18806103bc6000396000f3fe6080604052600436106101b75760003560e01c80636f8b44b0116100ec57806395d89b411161008a578063c87b56dd11610064578063c87b56dd14610478578063d5abeb0114610498578063e985e9c5146104ae578063f2fde38b146104ce57600080fd5b806395d89b4114610430578063a22cb46514610445578063b88d4fde1461046557600080fd5b80637b1b1de6116100c65780637b1b1de6146103c657806386c0da3c146103dc5780638da5cb5b146103f257806391b7f5ed1461041057600080fd5b80636f8b44b01461037157806370a0823114610391578063715018a6146103b157600080fd5b806342842e0e1161015957806355f804b31161013357806355f804b3146102fc5780636352211e1461031c5780636b3173ab1461033c5780636c0360eb1461035c57600080fd5b806342842e0e146102b65780634af56d93146102c957806351cff8d9146102dc57600080fd5b8063095ea7b311610195578063095ea7b31461024b57806318160ddd14610260578063224ecd191461028357806323b872dd146102a357600080fd5b806301ffc9a7146101bc57806306fdde03146101f1578063081812fc14610213575b600080fd5b3480156101c857600080fd5b506101dc6101d73660046112eb565b6104ee565b60405190151581526020015b60405180910390f35b3480156101fd57600080fd5b50610206610540565b6040516101e89190611358565b34801561021f57600080fd5b5061023361022e36600461136b565b6105d2565b6040516001600160a01b0390911681526020016101e8565b61025e610259366004611399565b61060d565b005b34801561026c57600080fd5b5061027561061d565b6040519081526020016101e8565b34801561028f57600080fd5b5061025e61029e36600461140e565b610636565b61025e6102b1366004611450565b610670565b61025e6102c4366004611450565b6107d5565b61025e6102d7366004611491565b6107f5565b3480156102e857600080fd5b5061025e6102f73660046114dd565b61097d565b34801561030857600080fd5b5061025e61031736600461140e565b6109ba565b34801561032857600080fd5b5061023361033736600461136b565b6109cf565b34801561034857600080fd5b5061025e6103573660046114fa565b6109da565b34801561036857600080fd5b50610206610aa6565b34801561037d57600080fd5b5061025e61038c36600461136b565b610ab5565b34801561039d57600080fd5b506102756103ac3660046114dd565b610ac2565b3480156103bd57600080fd5b5061025e610b08565b3480156103d257600080fd5b50610275600b5481565b3480156103e857600080fd5b50610275600d5481565b3480156103fe57600080fd5b506009546001600160a01b0316610233565b34801561041c57600080fd5b5061025e61042b36600461136b565b610b1c565b34801561043c57600080fd5b50610206610b29565b34801561045157600080fd5b5061025e610460366004611586565b610b38565b61025e6104733660046115da565b610ba4565b34801561048457600080fd5b5061020661049336600461136b565b610bdf565b3480156104a457600080fd5b50610275600a5481565b3480156104ba57600080fd5b506101dc6104c93660046116ba565b610ce2565b3480156104da57600080fd5b5061025e6104e93660046114dd565b610d10565b60006301ffc9a760e01b6001600160e01b03198316148061051f57506380ac58cd60e01b6001600160e01b03198316145b8061053a5750635b5e139f60e01b6001600160e01b03198316145b92915050565b60606002805461054f906116e8565b80601f016020809104026020016040519081016040528092919081815260200182805461057b906116e8565b80156105c85780601f1061059d576101008083540402835291602001916105c8565b820191906000526020600020905b8154815290600101906020018083116105ab57829003601f168201915b5050505050905090565b60006105dd82610d89565b6105f1576105f16333d1c03960e21b610dce565b506000908152600660205260409020546001600160a01b031690565b61061982826001610dd8565b5050565b60015460005403600019805b1461063357600854015b90565b61063e610e7b565b8181604051602001610651929190611722565b60408051601f198184030181529190528051602090910120600d555050565b600061067b82610ed5565b6001600160a01b0394851694909150811684146106a1576106a162a1148160e81b610dce565b60008281526006602052604090208054338082146001600160a01b038816909114176106e5576106d18633610ce2565b6106e5576106e5632ce44b5f60e11b610dce565b80156106f057600082555b6001600160a01b038681166000908152600560205260408082208054600019019055918716808252919020805460010190554260a01b17600160e11b17600085815260046020526040812091909155600160e11b84169003610782576001840160008181526004602052604081205490036107805760005481146107805760008181526004602052604090208490555b505b6001600160a01b0385168481887fddf252ad1be2c89b69c2b068fc378daa952ba7f163c4a11628f55a4df523b3ef600080a4806000036107cc576107cc633a954ecd60e21b610dce565b50505050505050565b6107f083838360405180602001604052806000815250610ba4565b505050565b600a541561085c57600a5483610809610f6b565b6108139190611748565b111561085c5760405162461bcd60e51b815260206004820152601360248201527213585e081cdd5c1c1b1e48195e18d959591959606a1b60448201526064015b60405180910390fd5b600083600b5461086c919061175b565b9050803410156108b65760405162461bcd60e51b8152602060048201526015602482015274125b9cdd59999a58da595b9d08115512081cd95b9d605a1b6044820152606401610853565b600d541561092d57600d5483836040516020016108d4929190611722565b604051602081830303815290604052805190602001201461092d5760405162461bcd60e51b8152602060048201526013602482015272496e76616c69642061636365737320636f646560681b6044820152606401610853565b6109373385610f77565b8034111561097757336108fc61094d8334611772565b6040518115909202916000818181858888f19350505050158015610975573d6000803e3d6000fd5b505b50505050565b610985610e7b565b6040516001600160a01b038216904780156108fc02916000818181858888f19350505050158015610619573d6000803e3d6000fd5b6109c2610e7b565b600c6107f08284836117cd565b600061053a82610ed5565b6109e2610e7b565b8015806109ee57508083145b610a305760405162461bcd60e51b81526020600482015260136024820152720aaa49240d8cadccee8d040dad2e6dac2e8c6d606b1b6044820152606401610853565b600054610a3d8585610f77565b60005b82811015610a9e57838382818110610a5a57610a5a61188d565b9050602002810190610a6c91906118a3565b600e6000610a7a8587611748565b81526020019081526020016000209182610a959291906117cd565b50600101610a40565b505050505050565b6060600c805461054f906116e8565b610abd610e7b565b600a55565b60006001600160a01b038216610ae257610ae26323d3ad8160e21b610dce565b506001600160a01b031660009081526005602052604090205467ffffffffffffffff1690565b610b10610e7b565b610b1a6000611036565b565b610b24610e7b565b600b55565b60606003805461054f906116e8565b3360008181526007602090815260408083206001600160a01b03871680855290835292819020805460ff191686151590811790915590519081529192917f17307eab39ab6107e8899845ad3d59bd9653f200f220920489ca2b5937696c31910160405180910390a35050565b610baf848484610670565b6001600160a01b0383163b1561097757610bcb84848484611088565b610977576109776368d2bf6b60e11b610dce565b6060610bea82610d89565b610c0757604051630a14c4b560e41b815260040160405180910390fd5b6000828152600e602052604081208054610c20906116e8565b80601f0160208091040260200160405190810160405280929190818152602001828054610c4c906116e8565b8015610c995780601f10610c6e57610100808354040283529160200191610c99565b820191906000526020600020905b815481529060010190602001808311610c7c57829003601f168201915b505050505090506000815111610cd957600c610cb48461116a565b604051602001610cc59291906118ea565b604051602081830303815290604052610cdb565b805b9392505050565b6001600160a01b03918216600090815260076020908152604080832093909416825291909152205460ff1690565b610d18610e7b565b6001600160a01b038116610d7d5760405162461bcd60e51b815260206004820152602660248201527f4f776e61626c653a206e6577206f776e657220697320746865207a65726f206160448201526564647265737360d01b6064820152608401610853565b610d8681611036565b50565b60008054821015610dc95760005b5060008281526004602052604081205490819003610dbf57610db883611971565b9250610d97565b600160e01b161590505b919050565b8060005260046000fd5b6000610de3836109cf565b9050818015610dfb5750336001600160a01b03821614155b15610e1e57610e0a8133610ce2565b610e1e57610e1e6367d9dca160e11b610dce565b60008381526006602052604080822080546001600160a01b0319166001600160a01b0388811691821790925591518693918516917f8c5be1e5ebec7d5bd14f71427d1e84f3dd0314c0f7b2291e5b200ac8c7c3b92591a450505050565b6009546001600160a01b03163314610b1a5760405162461bcd60e51b815260206004820181905260248201527f4f776e61626c653a2063616c6c6572206973206e6f7420746865206f776e65726044820152606401610853565b60008181526004602052604090205480600003610f48576000548210610f0557610f05636f96cda160e11b610dce565b5b50600019016000818152600460205260409020548015610f0657600160e01b8116600003610f3357919050565b610f43636f96cda160e11b610dce565b610f06565b600160e01b8116600003610f5b57919050565b610dc9636f96cda160e11b610dce565b60005460001980610629565b6000805490829003610f9357610f9363b562e8dd60e01b610dce565b60008181526004602090815260408083206001600160a01b0387164260a01b6001881460e11b17811790915580845260059092528220805468010000000000000001860201905590819003610ff157610ff1622e076360e81b610dce565b818301825b808360007fddf252ad1be2c89b69c2b068fc378daa952ba7f163c4a11628f55a4df523b3ef600080a4818160010191508103610ff6575060005550505050565b600980546001600160a01b038381166001600160a01b0319831681179093556040519116919082907f8be0079c531659141344cd1fd0a4f28419497f9722a3daafe3b4186f6b6457e090600090a35050565b604051630a85bd0160e11b81526000906001600160a01b0385169063150b7a02906110bd903390899088908890600401611988565b6020604051808303816000875af19250505080156110f8575060408051601f3d908101601f191682019092526110f5918101906119c5565b60015b61114d573d808015611126576040519150601f19603f3d011682016040523d82523d6000602084013e61112b565b606091505b508051600003611145576111456368d2bf6b60e11b610dce565b805181602001fd5b6001600160e01b031916630a85bd0160e11b149050949350505050565b60606000611177836111fd565b600101905060008167ffffffffffffffff811115611197576111976115c4565b6040519080825280601f01601f1916602001820160405280156111c1576020820181803683370190505b5090508181016020015b600019016f181899199a1a9b1b9c1cb0b131b232b360811b600a86061a8153600a85049450846111cb57509392505050565b60008072184f03e93ff9f4daa797ed6e38ed64bf6a1f0160401b831061123c5772184f03e93ff9f4daa797ed6e38ed64bf6a1f0160401b830492506040015b6d04ee2d6d415b85acef81000000008310611268576d04ee2d6d415b85acef8100000000830492506020015b662386f26fc10000831061128657662386f26fc10000830492506010015b6305f5e100831061129e576305f5e100830492506008015b61271083106112b257612710830492506004015b606483106112c4576064830492506002015b600a8310610cd95760010192915050565b6001600160e01b031981168114610d8657600080fd5b6000602082840312156112fd57600080fd5b8135610cdb816112d5565b60005b8381101561132357818101518382015260200161130b565b50506000910152565b60008151808452611344816020860160208601611308565b601f01601f19169290920160200192915050565b602081526000610cdb602083018461132c565b60006020828403121561137d57600080fd5b5035919050565b6001600160a01b0381168114610d8657600080fd5b600080604083850312156113ac57600080fd5b82356113b781611384565b946020939093013593505050565b60008083601f8401126113d757600080fd5b50813567ffffffffffffffff8111156113ef57600080fd5b60208301915083602082850101111561140757600080fd5b9250929050565b6000806020838503121561142157600080fd5b823567ffffffffffffffff81111561143857600080fd5b611444858286016113c5565b90969095509350505050565b60008060006060848603121561146557600080fd5b833561147081611384565b9250602084013561148081611384565b929592945050506040919091013590565b6000806000604084860312156114a657600080fd5b83359250602084013567ffffffffffffffff8111156114c457600080fd5b6114d0868287016113c5565b9497909650939450505050565b6000602082840312156114ef57600080fd5b8135610cdb81611384565b6000806000806060858703121561151057600080fd5b843561151b81611384565b935060208501359250604085013567ffffffffffffffff8082111561153f57600080fd5b818701915087601f83011261155357600080fd5b81358181111561156257600080fd5b8860208260051b850101111561157757600080fd5b95989497505060200194505050565b6000806040838503121561159957600080fd5b82356115a481611384565b9150602083013580151581146115b957600080fd5b809150509250929050565b634e487b7160e01b600052604160045260246000fd5b600080600080608085870312156115f057600080fd5b84356115fb81611384565b9350602085013561160b81611384565b925060408501359150606085013567ffffffffffffffff8082111561162f57600080fd5b818701915087601f83011261164357600080fd5b813581811115611655576116556115c4565b604051601f8201601f19908116603f0116810190838211818310171561167d5761167d6115c4565b816040528281528a602084870101111561169657600080fd5b82602086016020830137600060208483010152809550505050505092959194509250565b600080604083850312156116cd57600080fd5b82356116d881611384565b915060208301356115b981611384565b600181811c908216806116fc57607f821691505b60208210810361171c57634e487b7160e01b600052602260045260246000fd5b50919050565b8183823760009101908152919050565b634e487b7160e01b600052601160045260246000fd5b8082018082111561053a5761053a611732565b808202811582820484141761053a5761053a611732565b8181038181111561053a5761053a611732565b601f8211156107f0576000816000526020600020601f850160051c810160208610156117ae5750805b601f850160051c820191505b81811015610a9e578281556001016117ba565b67ffffffffffffffff8311156117e5576117e56115c4565b6117f9836117f383546116e8565b83611785565b6000601f84116001811461182d57600085156118155750838201355b600019600387901b1c1916600186901b178355610975565b600083815260209020601f19861690835b8281101561185e578685013582556020948501946001909201910161183e565b508682101561187b5760001960f88860031b161c19848701351681555b505060018560011b0183555050505050565b634e487b7160e01b600052603260045260246000fd5b6000808335601e198436030181126118ba57600080fd5b83018035915067ffffffffffffffff8211156118d557600080fd5b60200191503681900382131561140757600080fd5b60008084546118f8816116e8565b60018281168015611910576001811461192557611954565b60ff1984168752821515830287019450611954565b8860005260208060002060005b8581101561194b5781548a820152908401908201611932565b50505082870194505b505050508351611968818360208801611308565b01949350505050565b60008161198057611980611732565b506000190190565b6001600160a01b03858116825284166020820152604081018390526080606082018190526000906119bb9083018461132c565b9695505050505050565b6000602082840312156119d757600080fd5b8151610cdb816112d556fea2646970667358221220509659a9467f833e99328e291410f46ef60df76b5f95d8b0e9eec4ecc1fa965564736f6c63430008190033",
  "linkReferences": {},
  "deployedLinkReferences": {}
}